:1000000012C01FC01EC01DC01CC01BC096C019C09E
:1000100018C017C016C015C014C013C012C011C03C
:1000200010C00FC00EC011241FBECFEDCDBF20E009
:10003000A0E6B0E001C01D92AC36B207E1F70CD1EA
:1000400076C1DECF80B38095837090916B00891369
:1000500009C0E9E6F0E0918181839095982311F041
:100060009093690080936B0008951092680010923D
:10007000670080916A0080FF32C080916300909198
:100080006400A0916500B09166000097A105B105DC
:1000900069F481E090E0A0E0B0E080936300909389
:1000A0006400A0936500B093660008950196A11DB9
:1000B000B11D8093630090936400A0936500B0939A
:1000C000660081369105A105B105B0F183E090E0AD
:1000D0009093680080936700109269000895809162
:1000E000630090916400A0916500B0916600892B37
:1000F0008A2B8B2B41F010926300109264001092B7
:100100006500109266008091690081FF09C082E05D
:1001100090E09093680080936700109269000895C2
:100120008091690080FF08C081E090E090936800B2
:10013000809367001092690008951F920F920FB686
:100140000F9211242F933F934F935F936F937F935D
:100150008F939F93AF93BF93EF93FF938091620030
:100160008F5F809362008F70813011F46BDF03C06A
:10017000823009F47ADFFF91EF91BF91AF919F91A7
:100180008F917F916F915F914F913F912F910F9040
:100190000FBE0F901F90189512BE83B7826083BF69
:1001A00089B7826089BF7894089587B38F6787BBCA
:1001B000919A909A899888988D9A8C9A8B9A8A9A13
:1001C00008958130910569F08230910589F0892B7D
:1001D00009F041C08BE288BB82B3837C82BB959AD5
:1001E00008958AE488BB82B3837C82BB949A089585
:1001F0006623F1F08091600090916100892B69F491
:100200008CE288BB81E090E0909361008093600075
:1002100082B3837C82BB929A089582E388BB10925A
:1002200061001092600082B3837C82BB939A089530
:100230008091600090916100892B39F482E388BB42
:1002400082B3837C82BB939A08958CE288BB82B38D
:10025000837C82BB929A0895A8DF9EDF60E080E0F5
:1002600090E0AFDF10E0C0E0D0E0E12C6894FF2424
:10027000F1F800E0BB24B394CC24C394D12C88952E
:100280008091670090916800892BC9F3C130D10536
:10029000F1F0C230D10581F1209709F044C080917E
:1002A0006700909168008130910564F0833091057A
:1002B0001CF0039729F006C01E2DCF2DD02F02C0B1
:1002C000CC2DDD2D10926800109267002CC080911B
:1002D0006700909168008130910519F0029721F034
:1002E00006C0C0E0D0E003C01E2DCF2DD02F10924D
:1002F00068001092670017C08091670090916800B5
:100300008230910541F08330910539F0019739F43D
:10031000C0E0D0E004C01B2D02C0CC2DDD2D10921A
:10032000680010926700612FCE014BDFA8CFF894D0
:02033000FFCFFD
:00000001FF
